{
  "contractName": "TodoList",
  "abi": [
    {
      "anonymous": false,
      "inputs": [
        {
          "indexed": false,
          "internalType": "uint256",
          "name": "id",
          "type": "uint256"
        },
        {
          "indexed": false,
          "internalType": "bool",
          "name": "completed",
          "type": "bool"
        }
      ],
      "name": "TaskCompleted",
      "type": "event"
    },
    {
      "anonymous": false,
      "inputs": [
        {
          "indexed": false,
          "internalType": "uint256",
          "name": "id",
          "type": "uint256"
        },
        {
          "indexed": false,
          "internalType": "string",
          "name": "content",
          "type": "string"
        }
      ],
      "name": "TaskCreated",
      "type": "event"
    },
    {
      "anonymous": false,
      "inputs": [
        {
          "indexed": false,
          "internalType": "uint256",
          "name": "id",
          "type": "uint256"
        },
        {
          "indexed": false,
          "internalType": "string",
          "name": "content",
          "type": "string"
        },
        {
          "indexed": false,
          "internalType": "bool",
          "name": "validate",
          "type": "bool"
        }
      ],
      "name": "TaskValidate",
      "type": "event"
    },
    {
      "constant": true,
      "inputs": [],
      "name": "taskCount",
      "outputs": [
        {
          "internalType": "uint256",
          "name": "",
          "type": "uint256"
        }
      ],
      "payable": false,
      "stateMutability": "view",
      "type": "function"
    },
    {
      "constant": true,
      "inputs": [
        {
          "internalType": "uint256",
          "name": "",
          "type": "uint256"
        }
      ],
      "name": "tasks",
      "outputs": [
        {
          "internalType": "address",
          "name": "owner",
          "type": "address"
        },
        {
          "internalType": "uint256",
          "name": "id",
          "type": "uint256"
        },
        {
          "internalType": "string",
          "name": "content",
          "type": "string"
        },
        {
          "internalType": "bool",
          "name": "validated",
          "type": "bool"
        },
        {
          "internalType": "bool",
          "name": "completed",
          "type": "bool"
        }
      ],
      "payable": false,
      "stateMutability": "view",
      "type": "function"
    },
    {
      "constant": false,
      "inputs": [
        {
          "internalType": "string",
          "name": "_content",
          "type": "string"
        }
      ],
      "name": "createTask",
      "outputs": [],
      "payable": false,
      "stateMutability": "nonpayable",
      "type": "function"
    },
    {
      "constant": false,
      "inputs": [
        {
          "internalType": "string",
          "name": "_content",
          "type": "string"
        }
      ],
      "name": "createValidTask",
      "outputs": [],
      "payable": true,
      "stateMutability": "payable",
      "type": "function"
    },
    {
      "constant": false,
      "inputs": [
        {
          "internalType": "uint256",
          "name": "_id",
          "type": "uint256"
        }
      ],
      "name": "validateTask",
      "outputs": [],
      "payable": false,
      "stateMutability": "nonpayable",
      "type": "function"
    },
    {
      "constant": false,
      "inputs": [
        {
          "internalType": "uint256",
          "name": "_id",
          "type": "uint256"
        }
      ],
      "name": "toggleCompleted",
      "outputs": [],
      "payable": false,
      "stateMutability": "nonpayable",
      "type": "function"
    }
  ],
  "bytecode": "0x60806040526000805534801561001457600080fd5b50610c50806100246000396000f3fe6080604052600436106100555760003560e01c8063111002aa1461005a5780631d7fe45d1461010f57806323c09bbc14610139578063455f5024146101df5780638d97767214610209578063b6cb58a5146102d6575b600080fd5b34801561006657600080fd5b5061010d6004803603602081101561007d57600080fd5b81019060208101813564010000000081111561009857600080fd5b8201836020820111156100aa57600080fd5b803590602001918460018302840111640100000000831117156100cc57600080fd5b91908080601f0160208091040260200160405190810160405280939291908181526020018383808284376000920191909152509295506102fd945050505050565b005b34801561011b57600080fd5b5061010d6004803603602081101561013257600080fd5b5035610458565b61010d6004803603602081101561014f57600080fd5b81019060208101813564010000000081111561016a57600080fd5b82018360208201111561017c57600080fd5b8035906020019184600183028401116401000000008311171561019e57600080fd5b91908080601f0160208091040260200160405190810160405280939291908181526020018383808284376000920191909152509295506106e7945050505050565b3480156101eb57600080fd5b5061010d6004803603602081101561020257600080fd5b50356107b2565b34801561021557600080fd5b506102336004803603602081101561022c57600080fd5b5035610a79565b604080516001600160a01b038716815260208082018790528415156060830152831515608083015260a0928201838152865193830193909352855191929160c084019187019080838360005b8381101561029757818101518382015260200161027f565b50505050905090810190601f1680156102c45780820380516001836020036101000a031916815260200191505b50965050505050505060405180910390f35b3480156102e257600080fd5b506102eb610b3e565b60408051918252519081900360200190f35b6040805160a0810182523381526000805460208084018281528486018781526060860185905260808601859052928452600180835295909320845181546001600160a01b0319166001600160a01b03909116178155925194830194909455518051929391926103729260028501920190610b44565b506060828101516003909201805460809094015115156101000261ff001993151560ff1990951694909417929092169290921790556000805460010180825560408051828152602080820183815287519383019390935286517fa5ed9e6226c584326505694539c95cb0e3238ae09bcda5a65c00bbfdab1c66629694958895939493850192860191908190849084905b8381101561041a578181015183820152602001610402565b50505050905090810190601f1680156104475780820380516001836020036101000a031916815260200191505b50935050505060405180910390a150565b610460610bc2565b600082815260016020818152604092839020835160a08101855281546001600160a01b0316815281840154818401526002808301805487516101009782161597909702600019011691909104601f81018590048502860185018752808652919592949286019390919083018282801561051a5780601f106104ef5761010080835404028352916020019161051a565b820191906000526020600020905b8154815290600101906020018083116104fd57829003601f168201915b50505091835250506003919091015460ff8082161515602084015261010090910416151560409091015260608101519091501515600114156105a3576040805162461bcd60e51b815260206004820152601a60248201527f5461736b20697320616c72656164792076616c69646174652021000000000000604482015290519081900360640190fd5b60016060820181905260008381526020828152604091829020845181546001600160a01b0319166001600160a01b0390911617815581850151938101939093559083015180518493926105fd926002850192910190610b44565b506060828101516003909201805460809485015115156101000261ff001994151560ff1990921691909117939093169290921790915560408084015181518681526001928101839052602080820185815283519583019590955282517f71a50259b734783f5464303a54e89212258a9b51ee5cd55bc6f702d160f9b4e496899694959492908401919086019080838360005b838110156106a757818101518382015260200161068f565b50505050905090810190601f1680156106d45780820380516001836020036101000a031916815260200191505b5094505050505060405180910390a15050565b6000341161073c576040805162461bcd60e51b815260206004820152601760248201527f5a65726f20616d6f756e74206e6f7420616c6c6f776564000000000000000000604482015290519081900360640190fd5b6040805160a0810182523381526000805460208084018281528486018781526001606087018190526080870186905293855283835295909320845181546001600160a01b0319166001600160a01b0390911617815592519183019190915592518051929391926103729260028501920190610b44565b806107bb610bc2565b600082815260016020818152604092839020835160a08101855281546001600160a01b0316815281840154818401526002808301805487516101009782161597909702600019011691909104601f8101859004850286018501875280865291959294928601939091908301828280156108755780601f1061084a57610100808354040283529160200191610875565b820191906000526020600020905b81548152906001019060200180831161085857829003601f168201915b50505091835250506003919091015460ff8082161515602084015261010090910416151560409091015280519091506001600160a01b031633146108b857600080fd5b6108c0610bc2565b600084815260016020818152604092839020835160a08101855281546001600160a01b0316815281840154818401526002808301805487516101009782161597909702600019011691909104601f81018590048502860185018752808652919592949286019390919083018282801561097a5780601f1061094f5761010080835404028352916020019161097a565b820191906000526020600020905b81548152906001019060200180831161095d57829003601f168201915b50505091835250506003919091015460ff80821615156020808501919091526101009092041615156040928301526080830180511590526000878152600180835290839020845181546001600160a01b0319166001600160a01b0390911617815584830151918101919091559183015180519394508493610a019260028501920190610b44565b5060608201516003909101805460809384015115156101000261ff001993151560ff19909216919091179290921691909117905581015160408051868152911515602083015280517fe21fa966ca5cd02748c0752352d18c48165e61cb55b4c29cccf924b5a95fcff19281900390910190a150505050565b6001602081815260009283526040928390208054818401546002808401805488516101009882161598909802600019011691909104601f81018690048602870186019097528686526001600160a01b039092169590949293830182828015610b225780601f10610af757610100808354040283529160200191610b22565b820191906000526020600020905b815481529060010190602001808311610b0557829003601f168201915b5050506003909301549192505060ff8082169161010090041685565b60005481565b828054600181600116156101000203166002900490600052602060002090601f016020900481019282601f10610b8557805160ff1916838001178555610bb2565b82800160010185558215610bb2579182015b82811115610bb2578251825591602001919060010190610b97565b50610bbe929150610bfe565b5090565b6040518060a0016040528060006001600160a01b0316815260200160008152602001606081526020016000151581526020016000151581525090565b610c1891905b80821115610bbe5760008155600101610c04565b9056fea265627a7a723158202118a349a2e62464b3c6917a91bab645483fade399adcd8d223ba50251e1220d64736f6c63430005100032",
  "source": "// SPDX-License-Identifier: MIT\npragma solidity ^0.5.16;\n\ncontract TodoList {\n    uint public taskCount = 0;\n    struct Task {\n        address owner;\n        uint id;\n        string content;\n        bool validated;\n        bool completed;\n    }\n    mapping(uint => Task) public tasks;\n\n    modifier onlyOwner(uint _id) {\n        Task memory _task = tasks[_id];\n        require(msg.sender == _task.owner);\n        _;\n    }\n\n    event TaskCreated(\n        uint id,\n        string content\n    );\n\n    event TaskValidate(\n        uint id,\n        string content,\n        bool validate\n    );\n\n    event TaskCompleted(\n        uint id,\n        bool completed\n    );\n\n    function createTask(string memory _content) public {\n        tasks[taskCount] = Task(msg.sender, taskCount, _content, false, false);\n        taskCount++;\n        emit TaskCreated(taskCount, _content);\n    }\n\n    function createValidTask(string memory _content) public payable {\n        require(msg.value > 0, \"Zero amount not allowed\");\n        tasks[taskCount] = Task(msg.sender, taskCount, _content, true, false);\n        taskCount++;\n        emit TaskCreated(taskCount, _content);\n    }\n\n    function validateTask(uint _id) public {\n        Task memory _task = tasks[_id];\n        if (_task.validated == true) {\n            revert(\"Task is already validate !\");\n        }\n        _task.validated = true;\n        tasks[_id] = _task;\n        emit TaskValidate(_id, _task.content, true);\n    }\n\n    function toggleCompleted(uint _id) public onlyOwner(_id) {\n        Task memory _task = tasks[_id];\n        _task.completed = !_task.completed;\n        tasks[_id] = _task;\n        emit TaskCompleted(_id, _task.completed);\n    }\n\n}",
  "sourcePath": "/Users/nicolasmoreau/Canada/Blockchain/TP3/TP3-dApp/contracts/todoList.sol",
  "compiler": {
    "name": "solc",
    "version": "0.5.16+commit.9c3226ce.Emscripten.clang"
  },
  "schemaVersion": "3.4.16",
  "updatedAt": "2024-04-10T21:05:26.641Z",
  "networkType": "ethereum",
  "devdoc": {
    "methods": {}
  },
  "userdoc": {
    "methods": {}
  }
}