{
  "contractName": "TodoList",
  "abi": [
    {
      "anonymous": false,
      "inputs": [
        {
          "indexed": false,
          "internalType": "uint256",
          "name": "id",
          "type": "uint256"
        },
        {
          "indexed": false,
          "internalType": "bool",
          "name": "completed",
          "type": "bool"
        }
      ],
      "name": "TaskCompleted",
      "type": "event"
    },
    {
      "anonymous": false,
      "inputs": [
        {
          "indexed": false,
          "internalType": "uint256",
          "name": "id",
          "type": "uint256"
        },
        {
          "indexed": false,
          "internalType": "string",
          "name": "content",
          "type": "string"
        }
      ],
      "name": "TaskCreated",
      "type": "event"
    },
    {
      "anonymous": false,
      "inputs": [
        {
          "indexed": false,
          "internalType": "uint256",
          "name": "id",
          "type": "uint256"
        },
        {
          "indexed": false,
          "internalType": "string",
          "name": "content",
          "type": "string"
        },
        {
          "indexed": false,
          "internalType": "bool",
          "name": "validate",
          "type": "bool"
        }
      ],
      "name": "TaskValidate",
      "type": "event"
    },
    {
      "constant": true,
      "inputs": [],
      "name": "taskCount",
      "outputs": [
        {
          "internalType": "uint256",
          "name": "",
          "type": "uint256"
        }
      ],
      "payable": false,
      "stateMutability": "view",
      "type": "function"
    },
    {
      "constant": true,
      "inputs": [
        {
          "internalType": "uint256",
          "name": "",
          "type": "uint256"
        }
      ],
      "name": "tasks",
      "outputs": [
        {
          "internalType": "address",
          "name": "owner",
          "type": "address"
        },
        {
          "internalType": "uint256",
          "name": "id",
          "type": "uint256"
        },
        {
          "internalType": "string",
          "name": "content",
          "type": "string"
        },
        {
          "internalType": "bool",
          "name": "validated",
          "type": "bool"
        },
        {
          "internalType": "bool",
          "name": "completed",
          "type": "bool"
        }
      ],
      "payable": false,
      "stateMutability": "view",
      "type": "function"
    },
    {
      "constant": false,
      "inputs": [
        {
          "internalType": "string",
          "name": "_content",
          "type": "string"
        }
      ],
      "name": "createTask",
      "outputs": [],
      "payable": true,
      "stateMutability": "payable",
      "type": "function"
    },
    {
      "constant": false,
      "inputs": [
        {
          "internalType": "uint256",
          "name": "_id",
          "type": "uint256"
        }
      ],
      "name": "validateTask",
      "outputs": [],
      "payable": false,
      "stateMutability": "nonpayable",
      "type": "function"
    },
    {
      "constant": false,
      "inputs": [
        {
          "internalType": "uint256",
          "name": "_id",
          "type": "uint256"
        }
      ],
      "name": "toggleCompleted",
      "outputs": [],
      "payable": false,
      "stateMutability": "nonpayable",
      "type": "function"
    }
  ],
  "bytecode": "0x60806040526000805534801561001457600080fd5b50610ac7806100246000396000f3fe60806040526004361061004a5760003560e01c8063111002aa1461004f5780631d7fe45d146100f7578063455f5024146101215780638d9776721461014b578063b6cb58a514610218575b600080fd5b6100f56004803603602081101561006557600080fd5b81019060208101813564010000000081111561008057600080fd5b82018360208201111561009257600080fd5b803590602001918460018302840111640100000000831117156100b457600080fd5b91908080601f01602080910402602001604051908101604052809392919081815260200183838082843760009201919091525092955061023f945050505050565b005b34801561010357600080fd5b506100f56004803603602081101561011a57600080fd5b503561039a565b34801561012d57600080fd5b506100f56004803603602081101561014457600080fd5b5035610629565b34801561015757600080fd5b506101756004803603602081101561016e57600080fd5b50356108f0565b604080516001600160a01b038716815260208082018790528415156060830152831515608083015260a0928201838152865193830193909352855191929160c084019187019080838360005b838110156101d95781810151838201526020016101c1565b50505050905090810190601f1680156102065780820380516001836020036101000a031916815260200191505b50965050505050505060405180910390f35b34801561022457600080fd5b5061022d6109b5565b60408051918252519081900360200190f35b6040805160a0810182523381526000805460208084018281528486018781526060860185905260808601859052928452600180835295909320845181546001600160a01b0319166001600160a01b03909116178155925194830194909455518051929391926102b492600285019201906109bb565b506060828101516003909201805460809094015115156101000261ff001993151560ff1990951694909417929092169290921790556000805460010180825560408051828152602080820183815287519383019390935286517fa5ed9e6226c584326505694539c95cb0e3238ae09bcda5a65c00bbfdab1c66629694958895939493850192860191908190849084905b8381101561035c578181015183820152602001610344565b50505050905090810190601f1680156103895780820380516001836020036101000a031916815260200191505b50935050505060405180910390a150565b6103a2610a39565b600082815260016020818152604092839020835160a08101855281546001600160a01b0316815281840154818401526002808301805487516101009782161597909702600019011691909104601f81018590048502860185018752808652919592949286019390919083018282801561045c5780601f106104315761010080835404028352916020019161045c565b820191906000526020600020905b81548152906001019060200180831161043f57829003601f168201915b50505091835250506003919091015460ff8082161515602084015261010090910416151560409091015260608101519091501515600114156104e5576040805162461bcd60e51b815260206004820152601a60248201527f5461736b20697320616c72656164792076616c69646174652021000000000000604482015290519081900360640190fd5b60016060820181905260008381526020828152604091829020845181546001600160a01b0319166001600160a01b03909116178155818501519381019390935590830151805184939261053f9260028501929101906109bb565b506060828101516003909201805460809485015115156101000261ff001994151560ff1990921691909117939093169290921790915560408084015181518681526001928101839052602080820185815283519583019590955282517f71a50259b734783f5464303a54e89212258a9b51ee5cd55bc6f702d160f9b4e496899694959492908401919086019080838360005b838110156105e95781810151838201526020016105d1565b50505050905090810190601f1680156106165780820380516001836020036101000a031916815260200191505b5094505050505060405180910390a15050565b80610632610a39565b600082815260016020818152604092839020835160a08101855281546001600160a01b0316815281840154818401526002808301805487516101009782161597909702600019011691909104601f8101859004850286018501875280865291959294928601939091908301828280156106ec5780601f106106c1576101008083540402835291602001916106ec565b820191906000526020600020905b8154815290600101906020018083116106cf57829003601f168201915b50505091835250506003919091015460ff8082161515602084015261010090910416151560409091015280519091506001600160a01b0316331461072f57600080fd5b610737610a39565b600084815260016020818152604092839020835160a08101855281546001600160a01b0316815281840154818401526002808301805487516101009782161597909702600019011691909104601f8101859004850286018501875280865291959294928601939091908301828280156107f15780601f106107c6576101008083540402835291602001916107f1565b820191906000526020600020905b8154815290600101906020018083116107d457829003601f168201915b50505091835250506003919091015460ff80821615156020808501919091526101009092041615156040928301526080830180511590526000878152600180835290839020845181546001600160a01b0319166001600160a01b039091161781558483015191810191909155918301518051939450849361087892600285019201906109bb565b5060608201516003909101805460809384015115156101000261ff001993151560ff19909216919091179290921691909117905581015160408051868152911515602083015280517fe21fa966ca5cd02748c0752352d18c48165e61cb55b4c29cccf924b5a95fcff19281900390910190a150505050565b6001602081815260009283526040928390208054818401546002808401805488516101009882161598909802600019011691909104601f81018690048602870186019097528686526001600160a01b0390921695909492938301828280156109995780601f1061096e57610100808354040283529160200191610999565b820191906000526020600020905b81548152906001019060200180831161097c57829003601f168201915b5050506003909301549192505060ff8082169161010090041685565b60005481565b828054600181600116156101000203166002900490600052602060002090601f016020900481019282601f106109fc57805160ff1916838001178555610a29565b82800160010185558215610a29579182015b82811115610a29578251825591602001919060010190610a0e565b50610a35929150610a75565b5090565b6040518060a0016040528060006001600160a01b0316815260200160008152602001606081526020016000151581526020016000151581525090565b610a8f91905b80821115610a355760008155600101610a7b565b9056fea265627a7a723158205c232d5956385d3f3f475f665cd751a2fb8201add2ddc55c67b445a9d9a9a1ca64736f6c63430005100032",
  "source": "// SPDX-License-Identifier: MIT\npragma solidity ^0.5.16;\n\ncontract TodoList {\n    uint public taskCount = 0;\n    struct Task {\n        address owner;\n        uint id;\n        string content;\n        bool validated;\n        bool completed;\n    }\n    mapping(uint => Task) public tasks;\n\n    modifier onlyOwner(uint _id) {\n        Task memory _task = tasks[_id];\n        require(msg.sender == _task.owner);\n        _;\n    }\n\n    event TaskCreated(\n        uint id,\n        string content\n    );\n\n    event TaskValidate(\n        uint id,\n        string content,\n        bool validate\n    );\n\n    event TaskCompleted(\n        uint id,\n        bool completed\n    );\n\n    function createTask(string memory _content) public payable {\n        tasks[taskCount] = Task(msg.sender, taskCount, _content, false, false);\n        taskCount++;\n        emit TaskCreated(taskCount, _content);\n    }\n\n    function validateTask(uint _id) public {\n        Task memory _task = tasks[_id];\n        if (_task.validated == true) {\n            revert(\"Task is already validate !\");\n        }\n        _task.validated = true;\n        tasks[_id] = _task;\n        emit TaskValidate(_id, _task.content, true);\n    }\n\n    function toggleCompleted(uint _id) public onlyOwner(_id) {\n        Task memory _task = tasks[_id];\n        _task.completed = !_task.completed;\n        tasks[_id] = _task;\n        emit TaskCompleted(_id, _task.completed);\n    }\n\n}",
  "sourcePath": "/Users/snow/Projects/TP3-dApp/contracts/todoList.sol",
  "compiler": {
    "name": "solc",
    "version": "0.5.16+commit.9c3226ce.Emscripten.clang"
  },
  "schemaVersion": "3.4.16",
  "updatedAt": "2024-04-16T12:37:28.847Z",
  "networkType": "ethereum",
  "devdoc": {
    "methods": {}
  },
  "userdoc": {
    "methods": {}
  }
}